{
  "contractName": "product",
  "abi": [
    {
      "inputs": [],
      "stateMutability": "nonpayable",
      "type": "constructor"
    },
    {
      "anonymous": false,
      "inputs": [
        {
          "indexed": true,
          "internalType": "bytes32",
          "name": "productSN",
          "type": "bytes32"
        },
        {
          "indexed": true,
          "internalType": "bytes32",
          "name": "manufacturerId",
          "type": "bytes32"
        }
      ],
      "name": "ProductAdded",
      "type": "event"
    },
    {
      "anonymous": false,
      "inputs": [
        {
          "indexed": true,
          "internalType": "bytes32",
          "name": "productSN",
          "type": "bytes32"
        },
        {
          "indexed": true,
          "internalType": "bytes32",
          "name": "consumerCode",
          "type": "bytes32"
        }
      ],
      "name": "ProductSoldToConsumer",
      "type": "event"
    },
    {
      "anonymous": false,
      "inputs": [
        {
          "indexed": true,
          "internalType": "bytes32",
          "name": "productSN",
          "type": "bytes32"
        },
        {
          "indexed": true,
          "internalType": "bytes32",
          "name": "sellerCode",
          "type": "bytes32"
        }
      ],
      "name": "ProductTransferredToSeller",
      "type": "event"
    },
    {
      "anonymous": false,
      "inputs": [
        {
          "indexed": true,
          "internalType": "bytes32",
          "name": "sellerCode",
          "type": "bytes32"
        },
        {
          "indexed": false,
          "internalType": "bytes32",
          "name": "manufacturerId",
          "type": "bytes32"
        }
      ],
      "name": "SellerAdded",
      "type": "event"
    },
    {
      "inputs": [
        {
          "internalType": "address",
          "name": "",
          "type": "address"
        }
      ],
      "name": "addressToCode",
      "outputs": [
        {
          "internalType": "bytes32",
          "name": "",
          "type": "bytes32"
        }
      ],
      "stateMutability": "view",
      "type": "function"
    },
    {
      "inputs": [
        {
          "internalType": "bytes32",
          "name": "",
          "type": "bytes32"
        }
      ],
      "name": "codeToAddress",
      "outputs": [
        {
          "internalType": "address",
          "name": "",
          "type": "address"
        }
      ],
      "stateMutability": "view",
      "type": "function"
    },
    {
      "inputs": [
        {
          "internalType": "address",
          "name": "",
          "type": "address"
        }
      ],
      "name": "manufacturers",
      "outputs": [
        {
          "internalType": "bool",
          "name": "",
          "type": "bool"
        }
      ],
      "stateMutability": "view",
      "type": "function"
    },
    {
      "inputs": [],
      "name": "owner",
      "outputs": [
        {
          "internalType": "address",
          "name": "",
          "type": "address"
        }
      ],
      "stateMutability": "view",
      "type": "function"
    },
    {
      "inputs": [],
      "name": "productCount",
      "outputs": [
        {
          "internalType": "uint256",
          "name": "",
          "type": "uint256"
        }
      ],
      "stateMutability": "view",
      "type": "function"
    },
    {
      "inputs": [
        {
          "internalType": "uint256",
          "name": "",
          "type": "uint256"
        }
      ],
      "name": "productItems",
      "outputs": [
        {
          "internalType": "uint256",
          "name": "productId",
          "type": "uint256"
        },
        {
          "internalType": "bytes32",
          "name": "productSN",
          "type": "bytes32"
        },
        {
          "internalType": "bytes32",
          "name": "productName",
          "type": "bytes32"
        },
        {
          "internalType": "bytes32",
          "name": "productBrand",
          "type": "bytes32"
        },
        {
          "internalType": "uint256",
          "name": "productPrice",
          "type": "uint256"
        },
        {
          "internalType": "bytes32",
          "name": "productStatus",
          "type": "bytes32"
        },
        {
          "internalType": "uint256",
          "name": "timestamp",
          "type": "uint256"
        }
      ],
      "stateMutability": "view",
      "type": "function"
    },
    {
      "inputs": [
        {
          "internalType": "bytes32",
          "name": "",
          "type": "bytes32"
        }
      ],
      "name": "productMap",
      "outputs": [
        {
          "internalType": "uint256",
          "name": "",
          "type": "uint256"
        }
      ],
      "stateMutability": "view",
      "type": "function"
    },
    {
      "inputs": [
        {
          "internalType": "bytes32",
          "name": "",
          "type": "bytes32"
        }
      ],
      "name": "productsForSale",
      "outputs": [
        {
          "internalType": "bytes32",
          "name": "",
          "type": "bytes32"
        }
      ],
      "stateMutability": "view",
      "type": "function"
    },
    {
      "inputs": [
        {
          "internalType": "bytes32",
          "name": "",
          "type": "bytes32"
        }
      ],
      "name": "productsManufactured",
      "outputs": [
        {
          "internalType": "bytes32",
          "name": "",
          "type": "bytes32"
        }
      ],
      "stateMutability": "view",
      "type": "function"
    },
    {
      "inputs": [
        {
          "internalType": "bytes32",
          "name": "",
          "type": "bytes32"
        }
      ],
      "name": "productsSold",
      "outputs": [
        {
          "internalType": "bytes32",
          "name": "",
          "type": "bytes32"
        }
      ],
      "stateMutability": "view",
      "type": "function"
    },
    {
      "inputs": [
        {
          "internalType": "bytes32",
          "name": "",
          "type": "bytes32"
        },
        {
          "internalType": "uint256",
          "name": "",
          "type": "uint256"
        }
      ],
      "name": "productsWithConsumer",
      "outputs": [
        {
          "internalType": "bytes32",
          "name": "",
          "type": "bytes32"
        }
      ],
      "stateMutability": "view",
      "type": "function"
    },
    {
      "inputs": [
        {
          "internalType": "bytes32",
          "name": "",
          "type": "bytes32"
        },
        {
          "internalType": "uint256",
          "name": "",
          "type": "uint256"
        }
      ],
      "name": "productsWithSeller",
      "outputs": [
        {
          "internalType": "bytes32",
          "name": "",
          "type": "bytes32"
        }
      ],
      "stateMutability": "view",
      "type": "function"
    },
    {
      "inputs": [
        {
          "internalType": "address",
          "name": "",
          "type": "address"
        }
      ],
      "name": "retailers",
      "outputs": [
        {
          "internalType": "bool",
          "name": "",
          "type": "bool"
        }
      ],
      "stateMutability": "view",
      "type": "function"
    },
    {
      "inputs": [],
      "name": "sellerCount",
      "outputs": [
        {
          "internalType": "uint256",
          "name": "",
          "type": "uint256"
        }
      ],
      "stateMutability": "view",
      "type": "function"
    },
    {
      "inputs": [
        {
          "internalType": "uint256",
          "name": "",
          "type": "uint256"
        }
      ],
      "name": "sellers",
      "outputs": [
        {
          "internalType": "uint256",
          "name": "sellerId",
          "type": "uint256"
        },
        {
          "internalType": "bytes32",
          "name": "sellerName",
          "type": "bytes32"
        },
        {
          "internalType": "bytes32",
          "name": "sellerBrand",
          "type": "bytes32"
        },
        {
          "internalType": "bytes32",
          "name": "sellerCode",
          "type": "bytes32"
        },
        {
          "internalType": "uint256",
          "name": "sellerNum",
          "type": "uint256"
        },
        {
          "internalType": "bytes32",
          "name": "sellerManager",
          "type": "bytes32"
        },
        {
          "internalType": "bytes32",
          "name": "sellerAddress",
          "type": "bytes32"
        }
      ],
      "stateMutability": "view",
      "type": "function"
    },
    {
      "inputs": [
        {
          "internalType": "bytes32",
          "name": "",
          "type": "bytes32"
        },
        {
          "internalType": "uint256",
          "name": "",
          "type": "uint256"
        }
      ],
      "name": "sellersWithManufacturer",
      "outputs": [
        {
          "internalType": "bytes32",
          "name": "",
          "type": "bytes32"
        }
      ],
      "stateMutability": "view",
      "type": "function"
    },
    {
      "inputs": [
        {
          "internalType": "address",
          "name": "_manufacturerAddress",
          "type": "address"
        },
        {
          "internalType": "bytes32",
          "name": "_manufacturerCode",
          "type": "bytes32"
        }
      ],
      "name": "addManufacturer",
      "outputs": [],
      "stateMutability": "nonpayable",
      "type": "function"
    },
    {
      "inputs": [
        {
          "internalType": "address",
          "name": "_manufacturerAddress",
          "type": "address"
        }
      ],
      "name": "removeManufacturer",
      "outputs": [],
      "stateMutability": "nonpayable",
      "type": "function"
    },
    {
      "inputs": [
        {
          "internalType": "address",
          "name": "_retailerAddress",
          "type": "address"
        },
        {
          "internalType": "bytes32",
          "name": "_retailerCode",
          "type": "bytes32"
        }
      ],
      "name": "addRetailer",
      "outputs": [],
      "stateMutability": "nonpayable",
      "type": "function"
    },
    {
      "inputs": [
        {
          "internalType": "address",
          "name": "_retailerAddress",
          "type": "address"
        }
      ],
      "name": "removeRetailer",
      "outputs": [],
      "stateMutability": "nonpayable",
      "type": "function"
    },
    {
      "inputs": [
        {
          "internalType": "bytes32",
          "name": "_sellerName",
          "type": "bytes32"
        },
        {
          "internalType": "bytes32",
          "name": "_sellerBrand",
          "type": "bytes32"
        },
        {
          "internalType": "bytes32",
          "name": "_sellerCode",
          "type": "bytes32"
        },
        {
          "internalType": "uint256",
          "name": "_sellerNum",
          "type": "uint256"
        },
        {
          "internalType": "bytes32",
          "name": "_sellerManager",
          "type": "bytes32"
        },
        {
          "internalType": "bytes32",
          "name": "_sellerAddress",
          "type": "bytes32"
        }
      ],
      "name": "addSeller",
      "outputs": [],
      "stateMutability": "nonpayable",
      "type": "function"
    },
    {
      "inputs": [],
      "name": "viewSellers",
      "outputs": [
        {
          "internalType": "uint256[]",
          "name": "",
          "type": "uint256[]"
        },
        {
          "internalType": "bytes32[]",
          "name": "",
          "type": "bytes32[]"
        },
        {
          "internalType": "bytes32[]",
          "name": "",
          "type": "bytes32[]"
        },
        {
          "internalType": "bytes32[]",
          "name": "",
          "type": "bytes32[]"
        },
        {
          "internalType": "uint256[]",
          "name": "",
          "type": "uint256[]"
        },
        {
          "internalType": "bytes32[]",
          "name": "",
          "type": "bytes32[]"
        },
        {
          "internalType": "bytes32[]",
          "name": "",
          "type": "bytes32[]"
        }
      ],
      "stateMutability": "view",
      "type": "function"
    },
    {
      "inputs": [
        {
          "internalType": "bytes32",
          "name": "_productName",
          "type": "bytes32"
        },
        {
          "internalType": "bytes32",
          "name": "_productSN",
          "type": "bytes32"
        },
        {
          "internalType": "bytes32",
          "name": "_productBrand",
          "type": "bytes32"
        },
        {
          "internalType": "uint256",
          "name": "_productPrice",
          "type": "uint256"
        }
      ],
      "name": "addProduct",
      "outputs": [],
      "stateMutability": "nonpayable",
      "type": "function"
    },
    {
      "inputs": [],
      "name": "viewProductItems",
      "outputs": [
        {
          "internalType": "uint256[]",
          "name": "",
          "type": "uint256[]"
        },
        {
          "internalType": "bytes32[]",
          "name": "",
          "type": "bytes32[]"
        },
        {
          "internalType": "bytes32[]",
          "name": "",
          "type": "bytes32[]"
        },
        {
          "internalType": "bytes32[]",
          "name": "",
          "type": "bytes32[]"
        },
        {
          "internalType": "uint256[]",
          "name": "",
          "type": "uint256[]"
        },
        {
          "internalType": "bytes32[]",
          "name": "",
          "type": "bytes32[]"
        },
        {
          "internalType": "uint256[]",
          "name": "",
          "type": "uint256[]"
        }
      ],
      "stateMutability": "view",
      "type": "function"
    },
    {
      "inputs": [
        {
          "internalType": "bytes32",
          "name": "_productSN",
          "type": "bytes32"
        },
        {
          "internalType": "bytes32",
          "name": "_sellerCode",
          "type": "bytes32"
        }
      ],
      "name": "manufacturerSellProduct",
      "outputs": [],
      "stateMutability": "nonpayable",
      "type": "function"
    },
    {
      "inputs": [
        {
          "internalType": "bytes32",
          "name": "_productSN",
          "type": "bytes32"
        },
        {
          "internalType": "bytes32",
          "name": "_consumerCode",
          "type": "bytes32"
        }
      ],
      "name": "sellerSellProduct",
      "outputs": [],
      "stateMutability": "nonpayable",
      "type": "function"
    },
    {
      "inputs": [
        {
          "internalType": "bytes32",
          "name": "_sellerCode",
          "type": "bytes32"
        }
      ],
      "name": "queryProductsList",
      "outputs": [
        {
          "internalType": "uint256[]",
          "name": "",
          "type": "uint256[]"
        },
        {
          "internalType": "bytes32[]",
          "name": "",
          "type": "bytes32[]"
        },
        {
          "internalType": "bytes32[]",
          "name": "",
          "type": "bytes32[]"
        },
        {
          "internalType": "bytes32[]",
          "name": "",
          "type": "bytes32[]"
        },
        {
          "internalType": "uint256[]",
          "name": "",
          "type": "uint256[]"
        },
        {
          "internalType": "bytes32[]",
          "name": "",
          "type": "bytes32[]"
        }
      ],
      "stateMutability": "view",
      "type": "function"
    },
    {
      "inputs": [
        {
          "internalType": "bytes32",
          "name": "_manufacturerCode",
          "type": "bytes32"
        }
      ],
      "name": "querySellersList",
      "outputs": [
        {
          "internalType": "uint256[]",
          "name": "",
          "type": "uint256[]"
        },
        {
          "internalType": "bytes32[]",
          "name": "",
          "type": "bytes32[]"
        },
        {
          "internalType": "bytes32[]",
          "name": "",
          "type": "bytes32[]"
        },
        {
          "internalType": "bytes32[]",
          "name": "",
          "type": "bytes32[]"
        },
        {
          "internalType": "uint256[]",
          "name": "",
          "type": "uint256[]"
        },
        {
          "internalType": "bytes32[]",
          "name": "",
          "type": "bytes32[]"
        },
        {
          "internalType": "bytes32[]",
          "name": "",
          "type": "bytes32[]"
        }
      ],
      "stateMutability": "view",
      "type": "function"
    },
    {
      "inputs": [
        {
          "internalType": "bytes32",
          "name": "_consumerCode",
          "type": "bytes32"
        }
      ],
      "name": "getPurchaseHistory",
      "outputs": [
        {
          "internalType": "bytes32[]",
          "name": "",
          "type": "bytes32[]"
        },
        {
          "internalType": "bytes32[]",
          "name": "",
          "type": "bytes32[]"
        },
        {
          "internalType": "bytes32[]",
          "name": "",
          "type": "bytes32[]"
        }
      ],
      "stateMutability": "view",
      "type": "function"
    },
    {
      "inputs": [
        {
          "internalType": "bytes32",
          "name": "_productSN",
          "type": "bytes32"
        },
        {
          "internalType": "bytes32",
          "name": "_consumerCode",
          "type": "bytes32"
        }
      ],
      "name": "verifyProduct",
      "outputs": [
        {
          "internalType": "bool",
          "name": "",
          "type": "bool"
        }
      ],
      "stateMutability": "view",
      "type": "function"
    },
    {
      "inputs": [
        {
          "internalType": "bytes32",
          "name": "_productSN",
          "type": "bytes32"
        }
      ],
      "name": "getProductDetails",
      "outputs": [
        {
          "components": [
            {
              "internalType": "bytes32",
              "name": "productName",
              "type": "bytes32"
            },
            {
              "internalType": "bytes32",
              "name": "productBrand",
              "type": "bytes32"
            },
            {
              "internalType": "uint256",
              "name": "productPrice",
              "type": "uint256"
            },
            {
              "internalType": "bytes32",
              "name": "productStatus",
              "type": "bytes32"
            },
            {
              "internalType": "bytes32",
              "name": "manufacturer",
              "type": "bytes32"
            },
            {
              "internalType": "bytes32",
              "name": "seller",
              "type": "bytes32"
            },
            {
              "internalType": "bytes32",
              "name": "consumer",
              "type": "bytes32"
            },
            {
              "internalType": "uint256",
              "name": "timestamp",
              "type": "uint256"
            }
          ],
          "internalType": "struct product.ProductDetails",
          "name": "",
          "type": "tuple"
        }
      ],
      "stateMutability": "view",
      "type": "function"
    }
  ],
  "bytecode": "0x608060405234801561001057600080fd5b5033600260006101000a81548173ffffffffffffffffffffffffffffffffffffffff021916908373ffffffffffffffffffffffffffffffffffffffff160217905550614144806100616000396000f3fe608060405234801561001057600080fd5b50600436106101e55760003560e01c80638da5cb5b1161010f578063c20805b4116100a2578063cee26ed511610071578063cee26ed514610645578063e0f6ef871461067b578063e262113f14610699578063e92e692c146106c9576101e5565b8063c20805b41461057f578063c4f74631146105af578063caaf2751146105df578063cd4f6a2e14610615576101e5565b80639ea4695d116100de5780639ea4695d146104d1578063a090f47c14610503578063b0c7ad9414610533578063b74d3fb51461054f576101e5565b80638da5cb5b1461041e57806392162bc41461043c5780639a268f35146104715780639cd777dd146104a1576101e5565b806335571b44116101875780636b5eb09c116101565780636b5eb09c1461039a5780636baf0c51146103ca57806370099ec8146103e65780638577a70114610402576101e5565b806335571b44146103145780634b9930011461033057806359fa9b1f146103605780636a75323f1461037e576101e5565b8063130aa81f116101c3578063130aa81f1461025a5780631836bd4b14610290578063310bb4c7146102b4578063344b5d51146102e4576101e5565b8063032f95e6146101ea5780630a316df71461020e578063100b6ba21461022a575b600080fd5b6101f26106e5565b604051610205979695949392919061321e565b60405180910390f35b6102286004803603810190610223919061334d565b610ad2565b005b610244600480360381019061023f919061338d565b610c54565b60405161025191906133c9565b60405180910390f35b610274600480360381019061026f919061338d565b610c6c565b604051610287979695949392919061321e565b60405180910390f35b61029861112f565b6040516102ab97969594939291906133e4565b60405180910390f35b6102ce60048036038101906102c9919061338d565b611523565b6040516102db9190613493565b60405180910390f35b6102fe60048036038101906102f991906134ae565b611556565b60405161030b9190613509565b60405180910390f35b61032e6004803603810190610329919061334d565b611601565b005b61034a60048036038101906103459190613550565b611783565b604051610357919061359f565b60405180910390f35b6103686117b4565b60405161037591906133c9565b60405180910390f35b610398600480360381019061039391906135ba565b6117ba565b005b6103b460048036038101906103af91906135ba565b611963565b6040516103c19190613509565b60405180910390f35b6103e460048036038101906103df91906135e7565b611983565b005b61040060048036038101906103fb91906135ba565b611c21565b005b61041c600480360381019061041791906134ae565b611dca565b005b61042661214b565b6040516104339190613493565b60405180910390f35b6104566004803603810190610451919061338d565b612171565b6040516104689695949392919061364e565b60405180910390f35b61048b600480360381019061048691906135ba565b6125aa565b6040516104989190613509565b60405180910390f35b6104bb60048036038101906104b69190613550565b6125ca565b6040516104c8919061359f565b60405180910390f35b6104eb60048036038101906104e6919061338d565b6125fb565b6040516104fa939291906136d9565b60405180910390f35b61051d6004803603810190610518919061338d565b6127cf565b60405161052a919061359f565b60405180910390f35b61054d600480360381019061054891906134ae565b6127e7565b005b6105696004803603810190610564919061338d565b612b40565b60405161057691906137c7565b60405180910390f35b6105996004803603810190610594919061338d565b612c58565b6040516105a6919061359f565b60405180910390f35b6105c960048036038101906105c491906135ba565b612c70565b6040516105d6919061359f565b60405180910390f35b6105f960048036038101906105f491906137e3565b612c88565b60405161060c9796959493929190613810565b60405180910390f35b61062f600480360381019061062a919061338d565b612cca565b60405161063c919061359f565b60405180910390f35b61065f600480360381019061065a91906137e3565b612ce2565b604051610672979695949392919061387f565b60405180910390f35b610683612d24565b60405161069091906133c9565b60405180910390f35b6106b360048036038101906106ae9190613550565b612d2a565b6040516106c0919061359f565b60405180910390f35b6106e360048036038101906106de91906138ee565b612d5b565b005b60608060608060608060606000805467ffffffffffffffff81111561070d5761070c61397b565b5b60405190808252806020026020018201604052801561073b5781602001602082028036833780820191505090505b5090506000805467ffffffffffffffff81111561075b5761075a61397b565b5b6040519080825280602002602001820160405280156107895781602001602082028036833780820191505090505b5090506000805467ffffffffffffffff8111156107a9576107a861397b565b5b6040519080825280602002602001820160405280156107d75781602001602082028036833780820191505090505b5090506000805467ffffffffffffffff8111156107f7576107f661397b565b5b6040519080825280602002602001820160405280156108255781602001602082028036833780820191505090505b5090506000805467ffffffffffffffff8111156108455761084461397b565b5b6040519080825280602002602001820160405280156108735781602001602082028036833780820191505090505b5090506000805467ffffffffffffffff8111156108935761089261397b565b5b6040519080825280602002602001820160405280156108c15781602001602082028036833780820191505090505b5090506000805467ffffffffffffffff8111156108e1576108e061397b565b5b60405190808252806020026020018201604052801561090f5781602001602082028036833780820191505090505b50905060005b600054811015610aac576007600082815260200190815260200160002060000154888281518110610949576109486139aa565b5b602002602001018181525050600760008281526020019081526020016000206001015487828151811061097f5761097e6139aa565b5b60200260200101818152505060076000828152602001908152602001600020600201548682815181106109b5576109b46139aa565b5b60200260200101818152505060076000828152602001908152602001600020600301548582815181106109eb576109ea6139aa565b5b6020026020010181815250506007600082815260200190815260200160002060040154848281518110610a2157610a206139aa565b5b6020026020010181815250506007600082815260200190815260200160002060050154838281518110610a5757610a566139aa565b5b6020026020010181815250506007600082815260200190815260200160002060060154828281518110610a8d57610a8c6139aa565b5b6020026020010181815250508080610aa490613a08565b915050610915565b50868686868686869d509d509d509d509d509d509d505050505050505090919293949596565b600260009054906101000a900473ffffffffffffffffffffffffffffffffffffffff1673ffffffffffffffffffffffffffffffffffffffff163373ffffffffffffffffffffffffffffffffffffffff1614610b62576040517f08c379a0000000000000000000000000000000000000000000000000000000008152600401610b5990613ad4565b60405180910390fd5b6001600460008473ffffffffffffffffffffffffffffffffffffffff1673ffffffffffffffffffffffffffffffffffffffff16815260200190815260200160002060006101000a81548160ff02191690831515021790555080600560008473ffffffffffffffffffffffffffffffffffffffff1673ffffffffffffffffffffffffffffffffffffffff16815260200190815260200160002081905550816006600083815260200190815260200160002060006101000a81548173ffffffffffffffffffffffffffffffffffffffff021916908373ffffffffffffffffffffffffffffffffffffffff1602179055505050565b60096020528060005260406000206000915090505481565b60608060608060608060606000600f60008a8152602001908152602001600020805480602002602001604051908101604052809291908181526020018280548015610cd657602002820191906000526020600020905b815481526020019060010190808311610cc2575b50505050509050600080805467ffffffffffffffff811115610cfb57610cfa61397b565b5b604051908082528060200260200182016040528015610d295781602001602082028036833780820191505090505b5090506000805467ffffffffffffffff811115610d4957610d4861397b565b5b604051908082528060200260200182016040528015610d775781602001602082028036833780820191505090505b5090506000805467ffffffffffffffff811115610d9757610d9661397b565b5b604051908082528060200260200182016040528015610dc55781602001602082028036833780820191505090505b5090506000805467ffffffffffffffff811115610de557610de461397b565b5b604051908082528060200260200182016040528015610e135781602001602082028036833780820191505090505b5090506000805467ffffffffffffffff811115610e3357610e3261397b565b5b604051908082528060200260200182016040528015610e615781602001602082028036833780820191505090505b5090506000805467ffffffffffffffff811115610e8157610e8061397b565b5b604051908082528060200260200182016040528015610eaf5781602001602082028036833780820191505090505b5090506000805467ffffffffffffffff811115610ecf57610ece61397b565b5b604051908082528060200260200182016040528015610efd5781602001602082028036833780820191505090505b50905060005b6000548110156111055760005b8a518110156110f1578a8181518110610f2c57610f2b6139aa565b5b6020026020010151600760008481526020019081526020016000206003015414156110de576007600083815260200190815260200160002060000154898b81518110610f7b57610f7a6139aa565b5b6020026020010181815250506007600083815260200190815260200160002060010154888b81518110610fb157610fb06139aa565b5b6020026020010181815250506007600083815260200190815260200160002060020154878b81518110610fe757610fe66139aa565b5b6020026020010181815250506007600083815260200190815260200160002060030154868b8151811061101d5761101c6139aa565b5b6020026020010181815250506007600083815260200190815260200160002060040154858b81518110611053576110526139aa565b5b6020026020010181815250506007600083815260200190815260200160002060050154848b81518110611089576110886139aa565b5b6020026020010181815250506007600083815260200190815260200160002060060154838b815181106110bf576110be6139aa565b5b60200260200101818152505089806110d690613a08565b9a50506110f1565b80806110e990613a08565b915050610f10565b5080806110fd90613a08565b915050610f03565b50868686868686869f509f509f509f509f509f509f50505050505050505050919395979092949650565b6060806060806060806060600060015467ffffffffffffffff8111156111585761115761397b565b5b6040519080825280602002602001820160405280156111865781602001602082028036833780820191505090505b509050600060015467ffffffffffffffff8111156111a7576111a661397b565b5b6040519080825280602002602001820160405280156111d55781602001602082028036833780820191505090505b509050600060015467ffffffffffffffff8111156111f6576111f561397b565b5b6040519080825280602002602001820160405280156112245781602001602082028036833780820191505090505b509050600060015467ffffffffffffffff8111156112455761124461397b565b5b6040519080825280602002602001820160405280156112735781602001602082028036833780820191505090505b509050600060015467ffffffffffffffff8111156112945761129361397b565b5b6040519080825280602002602001820160405280156112c25781602001602082028036833780820191505090505b509050600060015467ffffffffffffffff8111156112e3576112e261397b565b5b6040519080825280602002602001820160405280156113115781602001602082028036833780820191505090505b509050600060015467ffffffffffffffff8111156113325761133161397b565b5b6040519080825280602002602001820160405280156113605781602001602082028036833780820191505090505b50905060005b6001548110156114fd57600860008281526020019081526020016000206000015488828151811061139a576113996139aa565b5b60200260200101818152505060086000828152602001908152602001600020600101548782815181106113d0576113cf6139aa565b5b6020026020010181815250506008600082815260200190815260200160002060020154868281518110611406576114056139aa565b5b602002602001018181525050600860008281526020019081526020016000206003015485828151811061143c5761143b6139aa565b5b6020026020010181815250506008600082815260200190815260200160002060040154848281518110611472576114716139aa565b5b60200260200101818152505060086000828152602001908152602001600020600501548382815181106114a8576114a76139aa565b5b60200260200101818152505060086000828152602001908152602001600020600601548282815181106114de576114dd6139aa565b5b60200260200101818152505080806114f590613a08565b915050611366565b50868686868686869d509d509d509d509d509d509d505050505050505090919293949596565b60066020528060005260406000206000915054906101000a900473ffffffffffffffffffffffffffffffffffffffff1681565b6000826000600960008381526020019081526020016000205411806115a3575080600860006009600085815260200190815260200160002054815260200190815260200160002060010154145b6115e2576040517f08c379a00000000000000000000000000000000000000000000000000000000081526004016115d990613b40565b60405180910390fd5b82600c6000868152602001908152602001600020541491505092915050565b600260009054906101000a900473ffffffffffffffffffffffffffffffffffffffff1673ffffffffffffffffffffffffffffffffffffffff163373ffffffffffffffffffffffffffffffffffffffff1614611691576040517f08c379a000000000000000000000000000000000000000000000000000000000815260040161168890613ad4565b60405180910390fd5b6001600360008473ffffffffffffffffffffffffffffffffffffffff1673ffffffffffffffffffffffffffffffffffffffff16815260200190815260200160002060006101000a81548160ff02191690831515021790555080600560008473ffffffffffffffffffffffffffffffffffffffff1673ffffffffffffffffffffffffffffffffffffffff16815260200190815260200160002081905550816006600083815260200190815260200160002060006101000a81548173ffffffffffffffffffffffffffffffffffffffff021916908373ffffffffffffffffffffffffffffffffffffffff1602179055505050565b600d602052816000526040600020818154811061179f57600080fd5b90600052602060002001600091509150505481565b60005481565b600260009054906101000a900473ffffffffffffffffffffffffffffffffffffffff1673ffffffffffffffffffffffffffffffffffffffff163373ffffffffffffffffffffffffffffffffffffffff161461184a576040517f08c379a000000000000000000000000000000000000000000000000000000000815260040161184190613ad4565b60405180910390fd5b6000600560008373ffffffffffffffffffffffffffffffffffffffff1673ffffffffffffffffffffffffffffffffffffffff1681526020019081526020016000205490506000600360008473ffffffffffffffffffffffffffffffffffffffff1673ffffffffffffffffffffffffffffffffffffffff16815260200190815260200160002060006101000a81548160ff021916908315150217905550600560008373ffffffffffffffffffffffffffffffffffffffff1673ffffffffffffffffffffffffffffffffffffffff168152602001908152602001600020600090556006600082815260200190815260200160002060006101000a81549073ffffffffffffffffffffffffffffffffffffffff02191690555050565b60036020528060005260406000206000915054906101000a900460ff1681565b600360003373ffffffffffffffffffffffffffffffffffffffff1673ffffffffffffffffffffffffffffffffffffffff16815260200190815260200160002060009054906101000a900460ff16611a0f576040517f08c379a0000000000000000000000000000000000000000000000000000000008152600401611a0690613bd2565b60405180910390fd5b6000600560003373ffffffffffffffffffffffffffffffffffffffff1673ffffffffffffffffffffffffffffffffffffffff1681526020019081526020016000205490506000801b811415611a99576040517f08c379a0000000000000000000000000000000000000000000000000000000008152600401611a9090613c3e565b60405180910390fd5b6000600960008681526020019081526020016000205414611aef576040517f08c379a0000000000000000000000000000000000000000000000000000000008152600401611ae690613cd0565b60405180910390fd5b6040518060e0016040528060015481526020018581526020018681526020018481526020018381526020017f417661696c61626c650000000000000000000000000000000000000000000000815260200142815250600860006001548152602001908152602001600020600082015181600001556020820151816001015560408201518160020155606082015181600301556080820151816004015560a0820151816005015560c08201518160060155905050600154600960008681526020019081526020016000208190555060016000815480929190611bcf90613a08565b919050555080600a60008681526020019081526020016000208190555080847f45223cd0e1d7fa1d026dd0cc9f04ef7d6f829ab6d0e6ab4a709b51248a1400c060405160405180910390a35050505050565b600260009054906101000a900473ffffffffffffffffffffffffffffffffffffffff1673ffffffffffffffffffffffffffffffffffffffff163373ffffffffffffffffffffffffffffffffffffffff1614611cb1576040517f08c379a0000000000000000000000000000000000000000000000000000000008152600401611ca890613ad4565b60405180910390fd5b6000600560008373ffffffffffffffffffffffffffffffffffffffff1673ffffffffffffffffffffffffffffffffffffffff1681526020019081526020016000205490506000600460008473ffffffffffffffffffffffffffffffffffffffff1673ffffffffffffffffffffffffffffffffffffffff16815260200190815260200160002060006101000a81548160ff021916908315150217905550600560008373ffffffffffffffffffffffffffffffffffffffff1673ffffffffffffffffffffffffffffffffffffffff168152602001908152602001600020600090556006600082815260200190815260200160002060006101000a81549073ffffffffffffffffffffffffffffffffffffffff02191690555050565b600360003373ffffffffffffffffffffffffffffffffffffffff1673ffffffffffffffffffffffffffffffffffffffff16815260200190815260200160002060009054906101000a900460ff16611e56576040517f08c379a0000000000000000000000000000000000000000000000000000000008152600401611e4d90613bd2565b60405180910390fd5b81600060096000838152602001908152602001600020541180611ea1575080600860006009600085815260200190815260200160002054815260200190815260200160002060010154145b611ee0576040517f08c379a0000000000000000000000000000000000000000000000000000000008152600401611ed790613b40565b60405180910390fd5b6000600560003373ffffffffffffffffffffffffffffffffffffffff1673ffffffffffffffffffffffffffffffffffffffff16815260200190815260200160002054905080600a60008681526020019081526020016000205414611f79576040517f08c379a0000000000000000000000000000000000000000000000000000000008152600401611f7090613d62565b60405180910390fd5b6000801b600b60008681526020019081526020016000205414611fd1576040517f08c379a0000000000000000000000000000000000000000000000000000000008152600401611fc890613df4565b60405180910390fd5b600080600f600084815260200190815260200160002080548060200260200160405190810160405280929190818152602001828054801561203157602002820191906000526020600020905b81548152602001906001019080831161201d575b5050505050905060005b81518110156120825785828281518110612058576120576139aa565b5b6020026020010151141561206f5760019250612082565b808061207a90613a08565b91505061203b565b50816120c3576040517f08c379a00000000000000000000000000000000000000000000000000000000081526004016120ba90613e86565b60405180910390fd5b600d600086815260200190815260200160002086908060018154018082558091505060019003906000526020600020016000909190919091505584600b60008881526020019081526020016000208190555084867ffe398dbbc6b728d45fc3ecee34e56736c445f8e666d9db4a73deb9f1baf34f7160405160405180910390a3505050505050565b600260009054906101000a900473ffffffffffffffffffffffffffffffffffffffff1681565b6060806060806060806000600d60008981526020019081526020016000208054806020026020016040519081016040528092919081815260200182805480156121d957602002820191906000526020600020905b8154815260200190600101908083116121c5575b5050505050905060008060015467ffffffffffffffff8111156121ff576121fe61397b565b5b60405190808252806020026020018201604052801561222d5781602001602082028036833780820191505090505b509050600060015467ffffffffffffffff81111561224e5761224d61397b565b5b60405190808252806020026020018201604052801561227c5781602001602082028036833780820191505090505b509050600060015467ffffffffffffffff81111561229d5761229c61397b565b5b6040519080825280602002602001820160405280156122cb5781602001602082028036833780820191505090505b509050600060015467ffffffffffffffff8111156122ec576122eb61397b565b5b60405190808252806020026020018201604052801561231a5781602001602082028036833780820191505090505b509050600060015467ffffffffffffffff81111561233b5761233a61397b565b5b6040519080825280602002602001820160405280156123695781602001602082028036833780820191505090505b509050600060015467ffffffffffffffff81111561238a5761238961397b565b5b6040519080825280602002602001820160405280156123b85781602001602082028036833780820191505090505b50905060005b6001548110156125865760005b8951811015612572578981815181106123e7576123e66139aa565b5b60200260200101516008600084815260200190815260200160002060010154141561255f576008600083815260200190815260200160002060000154888a81518110612436576124356139aa565b5b6020026020010181815250506008600083815260200190815260200160002060010154878a8151811061246c5761246b6139aa565b5b6020026020010181815250506008600083815260200190815260200160002060020154868a815181106124a2576124a16139aa565b5b6020026020010181815250506008600083815260200190815260200160002060030154858a815181106124d8576124d76139aa565b5b6020026020010181815250506008600083815260200190815260200160002060040154848a8151811061250e5761250d6139aa565b5b6020026020010181815250506008600083815260200190815260200160002060050154838a81518110612544576125436139aa565b5b602002602001018181525050888061255b90613a08565b9950505b808061256a90613a08565b9150506123cb565b50808061257e90613a08565b9150506123be565b508585858585859d509d509d509d509d509d50505050505050505091939550919395565b60046020528060005260406000206000915054906101000a900460ff1681565b600e60205281600052604060002081815481106125e657600080fd5b90600052602060002001600091509150505481565b60608060606000600e600086815260200190815260200160002080548060200260200160405190810160405280929190818152602001828054801561265f57602002820191906000526020600020905b81548152602001906001019080831161264b575b505050505090506000815167ffffffffffffffff8111156126835761268261397b565b5b6040519080825280602002602001820160405280156126b15781602001602082028036833780820191505090505b5090506000825167ffffffffffffffff8111156126d1576126d061397b565b5b6040519080825280602002602001820160405280156126ff5781602001602082028036833780820191505090505b50905060005b83518110156127bb57600b6000858381518110612725576127246139aa565b5b602002602001015181526020019081526020016000205483828151811061274f5761274e6139aa565b5b602002602001018181525050600a6000858381518110612772576127716139aa565b5b602002602001015181526020019081526020016000205482828151811061279c5761279b6139aa565b5b60200260200101818152505080806127b390613a08565b915050612705565b508282829550955095505050509193909250565b600b6020528060005260406000206000915090505481565b600460003373ffffffffffffffffffffffffffffffffffffffff1673ffffffffffffffffffffffffffffffffffffffff16815260200190815260200160002060009054906101000a900460ff16612873576040517f08c379a000000000000000000000000000000000000000000000000000000000815260040161286a90613f18565b60405180910390fd5b816000600960008381526020019081526020016000205411806128be575080600860006009600085815260200190815260200160002054815260200190815260200160002060010154145b6128fd576040517f08c379a00000000000000000000000000000000000000000000000000000000081526004016128f490613b40565b60405180910390fd5b6000600560003373ffffffffffffffffffffffffffffffffffffffff1673ffffffffffffffffffffffffffffffffffffffff16815260200190815260200160002054905080600b60008681526020019081526020016000205414612996576040517f08c379a000000000000000000000000000000000000000000000000000000000815260040161298d90613faa565b60405180910390fd5b6000801b600c600086815260200190815260200160002054146129ee576040517f08c379a00000000000000000000000000000000000000000000000000000000081526004016129e590614016565b60405180910390fd5b6000600960008681526020019081526020016000205490507f417661696c61626c650000000000000000000000000000000000000000000000600860008381526020019081526020016000206005015414612a7e576040517f08c379a0000000000000000000000000000000000000000000000000000000008152600401612a7590614082565b60405180910390fd5b7f4e410000000000000000000000000000000000000000000000000000000000006008600083815260200190815260200160002060050181905550600e600085815260200190815260200160002085908060018154018082558091505060019003906000526020600020016000909190919091505583600c60008781526020019081526020016000208190555083857f59b7ab33a557fb9f5b8b8f47aa17c57fd150284c74b92caf5fecdd71ad804b1360405160405180910390a35050505050565b612b48613037565b6000600960008481526020019081526020016000205490506000600860008381526020019081526020016000206040518060e001604052908160008201548152602001600182015481526020016002820154815260200160038201548152602001600482015481526020016005820154815260200160068201548152505090506040518061010001604052808260400151815260200182606001518152602001826080015181526020018260a001518152602001600a6000878152602001908152602001600020548152602001600b6000878152602001908152602001600020548152602001600c60008781526020019081526020016000205481526020018260c0015181525092505050919050565b600a6020528060005260406000206000915090505481565b60056020528060005260406000206000915090505481565b60086020528060005260406000206000915090508060000154908060010154908060020154908060030154908060040154908060050154908060060154905087565b600c6020528060005260406000206000915090505481565b60076020528060005260406000206000915090508060000154908060010154908060020154908060030154908060040154908060050154908060060154905087565b60015481565b600f6020528160005260406000208181548110612d4657600080fd5b90600052602060002001600091509150505481565b600360003373ffffffffffffffffffffffffffffffffffffffff1673ffffffffffffffffffffffffffffffffffffffff16815260200190815260200160002060009054906101000a900460ff16612de7576040517f08c379a0000000000000000000000000000000000000000000000000000000008152600401612dde90613bd2565b60405180910390fd5b6000600560003373ffffffffffffffffffffffffffffffffffffffff1673ffffffffffffffffffffffffffffffffffffffff1681526020019081526020016000205490506000801b811415612e71576040517f08c379a0000000000000000000000000000000000000000000000000000000008152600401612e6890613c3e565b60405180910390fd5b600073ffffffffffffffffffffffffffffffffffffffff166006600087815260200190815260200160002060009054906101000a900473ffffffffffffffffffffffffffffffffffffffff1673ffffffffffffffffffffffffffffffffffffffff1614612f13576040517f08c379a0000000000000000000000000000000000000000000000000000000008152600401612f0a906140ee565b60405180910390fd5b6040518060e001604052806000548152602001888152602001878152602001868152602001858152602001848152602001838152506007600080548152602001908152602001600020600082015181600001556020820151816001015560408201518160020155606082015181600301556080820151816004015560a0820151816005015560c08201518160060155905050600080815480929190612fb790613a08565b9190505550600f6000828152602001908152602001600020859080600181540180825580915050600190039060005260206000200160009091909190915055847f96289a1ff1b3040d81dccacf01cf617b4736dbc7189a052a295e780aa792ffe082604051613026919061359f565b60405180910390a250505050505050565b60405180610100016040528060008019168152602001600080191681526020016000815260200160008019168152602001600080191681526020016000801916815260200160008019168152602001600081525090565b600081519050919050565b600082825260208201905092915050565b6000819050602082019050919050565b6000819050919050565b6130cd816130ba565b82525050565b60006130df83836130c4565b60208301905092915050565b6000602082019050919050565b60006131038261308e565b61310d8185613099565b9350613118836130aa565b8060005b8381101561314957815161313088826130d3565b975061313b836130eb565b92505060018101905061311c565b5085935050505092915050565b600081519050919050565b600082825260208201905092915050565b6000819050602082019050919050565b6000819050919050565b61319581613182565b82525050565b60006131a7838361318c565b60208301905092915050565b6000602082019050919050565b60006131cb82613156565b6131d58185613161565b93506131e083613172565b8060005b838110156132115781516131f8888261319b565b9750613203836131b3565b9250506001810190506131e4565b5085935050505092915050565b600060e0820190508181036000830152613238818a6130f8565b9050818103602083015261324c81896131c0565b9050818103604083015261326081886131c0565b9050818103606083015261327481876131c0565b9050818103608083015261328881866130f8565b905081810360a083015261329c81856131c0565b905081810360c08301526132b081846131c0565b905098975050505050505050565b600080fd5b600073ffffffffffffffffffffffffffffffffffffffff82169050919050565b60006132ee826132c3565b9050919050565b6132fe816132e3565b811461330957600080fd5b50565b60008135905061331b816132f5565b92915050565b61332a81613182565b811461333557600080fd5b50565b60008135905061334781613321565b92915050565b60008060408385031215613364576133636132be565b5b60006133728582860161330c565b925050602061338385828601613338565b9150509250929050565b6000602082840312156133a3576133a26132be565b5b60006133b184828501613338565b91505092915050565b6133c3816130ba565b82525050565b60006020820190506133de60008301846133ba565b92915050565b600060e08201905081810360008301526133fe818a6130f8565b9050818103602083015261341281896131c0565b9050818103604083015261342681886131c0565b9050818103606083015261343a81876131c0565b9050818103608083015261344e81866130f8565b905081810360a083015261346281856131c0565b905081810360c083015261347681846130f8565b905098975050505050505050565b61348d816132e3565b82525050565b60006020820190506134a86000830184613484565b92915050565b600080604083850312156134c5576134c46132be565b5b60006134d385828601613338565b92505060206134e485828601613338565b9150509250929050565b60008115159050919050565b613503816134ee565b82525050565b600060208201905061351e60008301846134fa565b92915050565b61352d816130ba565b811461353857600080fd5b50565b60008135905061354a81613524565b92915050565b60008060408385031215613567576135666132be565b5b600061357585828601613338565b92505060206135868582860161353b565b9150509250929050565b61359981613182565b82525050565b60006020820190506135b46000830184613590565b92915050565b6000602082840312156135d0576135cf6132be565b5b60006135de8482850161330c565b91505092915050565b60008060008060808587031215613601576136006132be565b5b600061360f87828801613338565b945050602061362087828801613338565b935050604061363187828801613338565b92505060606136428782880161353b565b91505092959194509250565b600060c082019050818103600083015261366881896130f8565b9050818103602083015261367c81886131c0565b9050818103604083015261369081876131c0565b905081810360608301526136a481866131c0565b905081810360808301526136b881856130f8565b905081810360a08301526136cc81846131c0565b9050979650505050505050565b600060608201905081810360008301526136f381866131c0565b9050818103602083015261370781856131c0565b9050818103604083015261371b81846131c0565b9050949350505050565b6101008201600082015161373c600085018261318c565b50602082015161374f602085018261318c565b50604082015161376260408501826130c4565b506060820151613775606085018261318c565b506080820151613788608085018261318c565b5060a082015161379b60a085018261318c565b5060c08201516137ae60c085018261318c565b5060e08201516137c160e08501826130c4565b50505050565b6000610100820190506137dd6000830184613725565b92915050565b6000602082840312156137f9576137f86132be565b5b60006138078482850161353b565b91505092915050565b600060e082019050613825600083018a6133ba565b6138326020830189613590565b61383f6040830188613590565b61384c6060830187613590565b61385960808301866133ba565b61386660a0830185613590565b61387360c08301846133ba565b98975050505050505050565b600060e082019050613894600083018a6133ba565b6138a16020830189613590565b6138ae6040830188613590565b6138bb6060830187613590565b6138c860808301866133ba565b6138d560a0830185613590565b6138e260c0830184613590565b98975050505050505050565b60008060008060008060c0878903121561390b5761390a6132be565b5b600061391989828a01613338565b965050602061392a89828a01613338565b955050604061393b89828a01613338565b945050606061394c89828a0161353b565b935050608061395d89828a01613338565b92505060a061396e89828a01613338565b9150509295509295509295565b7f4e487b7100000000000000000000000000000000000000000000000000000000600052604160045260246000fd5b7f4e487b7100000000000000000000000000000000000000000000000000000000600052603260045260246000fd5b7f4e487b7100000000000000000000000000000000000000000000000000000000600052601160045260246000fd5b6000613a13826130ba565b91507fffffffffffffffffffffffffffffffffffffffffffffffffffffffffffffffff821415613a4657613a456139d9565b5b600182019050919050565b600082825260208201905092915050565b7f4f6e6c79206f776e65722063616e2063616c6c20746869732066756e6374696f60008201527f6e00000000000000000000000000000000000000000000000000000000000000602082015250565b6000613abe602183613a51565b9150613ac982613a62565b604082019050919050565b60006020820190508181036000830152613aed81613ab1565b9050919050565b7f50726f6475637420646f6573206e6f7420657869737400000000000000000000600082015250565b6000613b2a601683613a51565b9150613b3582613af4565b602082019050919050565b60006020820190508181036000830152613b5981613b1d565b9050919050565b7f4f6e6c792072656769737465726564206d616e7566616374757265727320636160008201527f6e2063616c6c20746869732066756e6374696f6e000000000000000000000000602082015250565b6000613bbc603483613a51565b9150613bc782613b60565b604082019050919050565b60006020820190508181036000830152613beb81613baf565b9050919050565b7f4d616e756661637475726572204944206e6f7420666f756e6400000000000000600082015250565b6000613c28601983613a51565b9150613c3382613bf2565b602082019050919050565b60006020820190508181036000830152613c5781613c1b565b9050919050565b7f50726f647563742077697468207468697320534e20616c72656164792065786960008201527f7374730000000000000000000000000000000000000000000000000000000000602082015250565b6000613cba602383613a51565b9150613cc582613c5e565b604082019050919050565b60006020820190508181036000830152613ce981613cad565b9050919050565b7f596f7520617265206e6f7420746865206d616e756661637475726572206f662060008201527f746869732070726f647563740000000000000000000000000000000000000000602082015250565b6000613d4c602c83613a51565b9150613d5782613cf0565b604082019050919050565b60006020820190508181036000830152613d7b81613d3f565b9050919050565b7f50726f6475637420616c72656164792061737369676e656420746f206120736560008201527f6c6c657200000000000000000000000000000000000000000000000000000000602082015250565b6000613dde602483613a51565b9150613de982613d82565b604082019050919050565b60006020820190508181036000830152613e0d81613dd1565b9050919050565b7f53656c6c6572206e6f742072656769737465726564207769746820746869732060008201527f6d616e7566616374757265720000000000000000000000000000000000000000602082015250565b6000613e70602c83613a51565b9150613e7b82613e14565b604082019050919050565b60006020820190508181036000830152613e9f81613e63565b9050919050565b7f4f6e6c7920726567697374657265642072657461696c6572732063616e20636160008201527f6c6c20746869732066756e6374696f6e00000000000000000000000000000000602082015250565b6000613f02603083613a51565b9150613f0d82613ea6565b604082019050919050565b60006020820190508181036000830152613f3181613ef5565b9050919050565b7f596f7520617265206e6f7420617574686f72697a656420746f2073656c6c207460008201527f6869732070726f64756374000000000000000000000000000000000000000000602082015250565b6000613f94602b83613a51565b9150613f9f82613f38565b604082019050919050565b60006020820190508181036000830152613fc381613f87565b9050919050565b7f50726f6475637420616c726561647920736f6c64000000000000000000000000600082015250565b6000614000601483613a51565b915061400b82613fca565b602082019050919050565b6000602082019050818103600083015261402f81613ff3565b9050919050565b7f50726f64756374206e6f7420617661696c61626c6520666f722073616c650000600082015250565b600061406c601e83613a51565b915061407782614036565b602082019050919050565b6000602082019050818103600083015261409b8161405f565b9050919050565b7f53656c6c657220636f646520616c726561647920726567697374657265640000600082015250565b60006140d8601e83613a51565b91506140e3826140a2565b602082019050919050565b60006020820190508181036000830152614107816140cb565b905091905056fea2646970667358221220cd8603ca8bc43e7dc7a56efe938d905b5c6fd8d73f73cb79e558e0db2142b14a64736f6c634300080c0033",
  "immutableReferences": {},
  "source": "pragma solidity ^0.8.12;\n\n/// @title BlockVerify - A product verification and anti-counterfeit system\n/// @notice This contract manages the lifecycle of products from manufacturer to consumer\ncontract product {\n    // State variables\n    uint256 public sellerCount;\n    uint256 public productCount;\n    address public owner;\n    \n    // Role management\n    mapping(address => bool) public manufacturers;\n    mapping(address => bool) public retailers;\n    mapping(address => bytes32) public addressToCode; // Maps addresses to their codes\n    mapping(bytes32 => address) public codeToAddress; // Maps codes to their addresses\n\n    // Events for better tracking and frontend notifications\n    event SellerAdded(bytes32 indexed sellerCode, bytes32 manufacturerId);\n    event ProductAdded(bytes32 indexed productSN, bytes32 indexed manufacturerId);\n    event ProductTransferredToSeller(bytes32 indexed productSN, bytes32 indexed sellerCode);\n    event ProductSoldToConsumer(bytes32 indexed productSN, bytes32 indexed consumerCode);\n\n    // Structs\n    struct seller{\n        uint256 sellerId;\n        bytes32 sellerName;\n        bytes32 sellerBrand;\n        bytes32 sellerCode;\n        uint256 sellerNum;\n        bytes32 sellerManager;\n        bytes32 sellerAddress;\n    }\n    mapping(uint=>seller) public sellers;\n\n    struct productItem{\n        uint256 productId;\n        bytes32 productSN;\n        bytes32 productName;\n        bytes32 productBrand;\n        uint256 productPrice;\n        bytes32 productStatus;\n        uint256 timestamp;  // Added timestamp for when product was registered\n    }\n\n    // Mappings\n    mapping(uint256=>productItem) public productItems;\n    mapping(bytes32=>uint256) public productMap;\n    mapping(bytes32=>bytes32) public productsManufactured;\n    mapping(bytes32=>bytes32) public productsForSale;\n    mapping(bytes32=>bytes32) public productsSold;\n    mapping(bytes32=>bytes32[]) public productsWithSeller;\n    mapping(bytes32=>bytes32[]) public productsWithConsumer;\n    mapping(bytes32=>bytes32[]) public sellersWithManufacturer;\n    \n    // Add this struct definition near the top of the contract with other structs\n    struct ProductDetails {\n        bytes32 productName;\n        bytes32 productBrand;\n        uint256 productPrice;\n        bytes32 productStatus;\n        bytes32 manufacturer;\n        bytes32 seller;\n        bytes32 consumer;\n        uint256 timestamp;\n    }\n\n    // Modifiers\n    modifier onlyOwner() {\n        require(msg.sender == owner, \"Only owner can call this function\");\n        _;\n    }\n    \n    modifier onlyManufacturer() {\n        require(manufacturers[msg.sender], \"Only registered manufacturers can call this function\");\n        _;\n    }\n    \n    modifier onlyRetailer() {\n        require(retailers[msg.sender], \"Only registered retailers can call this function\");\n        _;\n    }\n    \n    modifier validProduct(bytes32 _productSN) {\n        require(productMap[_productSN] > 0 || productItems[productMap[_productSN]].productSN == _productSN, \"Product does not exist\");\n        _;\n    }\n\n    // Constructor\n    constructor() {\n        owner = msg.sender;\n    }\n\n    // Owner management functions\n    function addManufacturer(address _manufacturerAddress, bytes32 _manufacturerCode) public onlyOwner {\n        manufacturers[_manufacturerAddress] = true;\n        addressToCode[_manufacturerAddress] = _manufacturerCode;\n        codeToAddress[_manufacturerCode] = _manufacturerAddress;\n    }\n    \n    function removeManufacturer(address _manufacturerAddress) public onlyOwner {\n        bytes32 code = addressToCode[_manufacturerAddress];\n        manufacturers[_manufacturerAddress] = false;\n        delete addressToCode[_manufacturerAddress];\n        delete codeToAddress[code];\n    }\n    \n    function addRetailer(address _retailerAddress, bytes32 _retailerCode) public onlyOwner {\n        retailers[_retailerAddress] = true;\n        addressToCode[_retailerAddress] = _retailerCode;\n        codeToAddress[_retailerCode] = _retailerAddress;\n    }\n    \n    function removeRetailer(address _retailerAddress) public onlyOwner {\n        bytes32 code = addressToCode[_retailerAddress];\n        retailers[_retailerAddress] = false;\n        delete addressToCode[_retailerAddress];\n        delete codeToAddress[code];\n    }\n\n    //SELLER SECTION\n    function addSeller(bytes32 _sellerName, bytes32 _sellerBrand, bytes32 _sellerCode,\n    uint256 _sellerNum, bytes32 _sellerManager, bytes32 _sellerAddress) public onlyManufacturer {\n        bytes32 _manufacturerId = addressToCode[msg.sender];\n        require(_manufacturerId != 0, \"Manufacturer ID not found\");\n        require(codeToAddress[_sellerCode] == address(0), \"Seller code already registered\");\n        \n        sellers[sellerCount] = seller(sellerCount, _sellerName, _sellerBrand, _sellerCode,\n        _sellerNum, _sellerManager, _sellerAddress);\n        sellerCount++;\n\n        sellersWithManufacturer[_manufacturerId].push(_sellerCode);\n        \n        // Emit event\n        emit SellerAdded(_sellerCode, _manufacturerId);\n    }\n\n    function viewSellers() public view returns(uint256[] memory, bytes32[] memory, bytes32[] memory, bytes32[] memory, uint256[] memory, bytes32[] memory, bytes32[] memory) {\n        uint256[] memory ids = new uint256[](sellerCount);\n        bytes32[] memory snames = new bytes32[](sellerCount);\n        bytes32[] memory sbrands = new bytes32[](sellerCount);\n        bytes32[] memory scodes = new bytes32[](sellerCount);\n        uint256[] memory snums = new uint256[](sellerCount);\n        bytes32[] memory smanagers = new bytes32[](sellerCount);\n        bytes32[] memory saddress = new bytes32[](sellerCount);\n        \n        for(uint i=0; i<sellerCount; i++){\n            ids[i] = sellers[i].sellerId;\n            snames[i] = sellers[i].sellerName;\n            sbrands[i] = sellers[i].sellerBrand;\n            scodes[i] = sellers[i].sellerCode;\n            snums[i] = sellers[i].sellerNum;\n            smanagers[i] = sellers[i].sellerManager;\n            saddress[i] = sellers[i].sellerAddress;\n        }\n        return(ids, snames, sbrands, scodes, snums, smanagers, saddress);\n    }\n\n    //PRODUCT SECTION\n    function addProduct(bytes32 _productName, bytes32 _productSN, bytes32 _productBrand,\n    uint256 _productPrice) public onlyManufacturer {\n        bytes32 _manufacturerId = addressToCode[msg.sender];\n        require(_manufacturerId != 0, \"Manufacturer ID not found\");\n        require(productMap[_productSN] == 0, \"Product with this SN already exists\");\n        \n        productItems[productCount] = productItem(\n            productCount, \n            _productSN, \n            _productName, \n            _productBrand,\n            _productPrice, \n            \"Available\", \n            block.timestamp\n        );\n        \n        productMap[_productSN] = productCount;\n        productCount++;\n        productsManufactured[_productSN] = _manufacturerId;\n        \n        // Emit event\n        emit ProductAdded(_productSN, _manufacturerId);\n    }\n\n    function viewProductItems() public view returns(\n        uint256[] memory, \n        bytes32[] memory, \n        bytes32[] memory, \n        bytes32[] memory, \n        uint256[] memory, \n        bytes32[] memory,\n        uint256[] memory\n    ) {\n        uint256[] memory pids = new uint256[](productCount);\n        bytes32[] memory pSNs = new bytes32[](productCount);\n        bytes32[] memory pnames = new bytes32[](productCount);\n        bytes32[] memory pbrands = new bytes32[](productCount);\n        uint256[] memory pprices = new uint256[](productCount);\n        bytes32[] memory pstatus = new bytes32[](productCount);\n        uint256[] memory ptimestamps = new uint256[](productCount);\n        \n        for(uint i=0; i<productCount; i++){\n            pids[i] = productItems[i].productId;\n            pSNs[i] = productItems[i].productSN;\n            pnames[i] = productItems[i].productName;\n            pbrands[i] = productItems[i].productBrand;\n            pprices[i] = productItems[i].productPrice;\n            pstatus[i] = productItems[i].productStatus;\n            ptimestamps[i] = productItems[i].timestamp;\n        }\n        return(pids, pSNs, pnames, pbrands, pprices, pstatus, ptimestamps);\n    }\n\n    //SELL Product\n    function manufacturerSellProduct(bytes32 _productSN, bytes32 _sellerCode) public onlyManufacturer validProduct(_productSN) {\n        bytes32 manufacturerId = addressToCode[msg.sender];\n        require(productsManufactured[_productSN] == manufacturerId, \"You are not the manufacturer of this product\");\n        require(productsForSale[_productSN] == 0, \"Product already assigned to a seller\");\n        \n        // Verify seller exists and is registered by this manufacturer\n        bool sellerExists = false;\n        bytes32[] memory sellerCodes = sellersWithManufacturer[manufacturerId];\n        for(uint i=0; i<sellerCodes.length; i++) {\n            if(sellerCodes[i] == _sellerCode) {\n                sellerExists = true;\n                break;\n            }\n        }\n        require(sellerExists, \"Seller not registered with this manufacturer\");\n        \n        // Transfer product to seller\n        productsWithSeller[_sellerCode].push(_productSN);\n        productsForSale[_productSN] = _sellerCode;\n        \n        // Emit event\n        emit ProductTransferredToSeller(_productSN, _sellerCode);\n    }\n\n    function sellerSellProduct(bytes32 _productSN, bytes32 _consumerCode) public onlyRetailer validProduct(_productSN) {   \n        bytes32 sellerCode = addressToCode[msg.sender];\n        require(productsForSale[_productSN] == sellerCode, \"You are not authorized to sell this product\");\n        require(productsSold[_productSN] == 0, \"Product already sold\");\n        \n        uint256 productIndex = productMap[_productSN];\n        require(productItems[productIndex].productStatus == \"Available\", \"Product not available for sale\");\n        \n        // Mark product as sold\n        productItems[productIndex].productStatus = \"NA\";\n        productsWithConsumer[_consumerCode].push(_productSN);\n        productsSold[_productSN] = _consumerCode;\n        \n        // Emit event\n        emit ProductSoldToConsumer(_productSN, _consumerCode);\n    }\n\n    function queryProductsList(bytes32 _sellerCode) public view returns(\n        uint256[] memory, \n        bytes32[] memory, \n        bytes32[] memory, \n        bytes32[] memory, \n        uint256[] memory, \n        bytes32[] memory\n    ) {\n        bytes32[] memory productSNs = productsWithSeller[_sellerCode];\n        uint256 k=0;\n\n        uint256[] memory pids = new uint256[](productCount);\n        bytes32[] memory pSNs = new bytes32[](productCount);\n        bytes32[] memory pnames = new bytes32[](productCount);\n        bytes32[] memory pbrands = new bytes32[](productCount);\n        uint256[] memory pprices = new uint256[](productCount);\n        bytes32[] memory pstatus = new bytes32[](productCount);\n\n        for(uint i=0; i<productCount; i++){\n            for(uint j=0; j<productSNs.length; j++){\n                if(productItems[i].productSN==productSNs[j]){\n                    pids[k] = productItems[i].productId;\n                    pSNs[k] = productItems[i].productSN;\n                    pnames[k] = productItems[i].productName;\n                    pbrands[k] = productItems[i].productBrand;\n                    pprices[k] = productItems[i].productPrice;\n                    pstatus[k] = productItems[i].productStatus;\n                    k++;\n                }\n            }\n        }\n        return(pids, pSNs, pnames, pbrands, pprices, pstatus);\n    }\n\n    function querySellersList(bytes32 _manufacturerCode) public view returns(\n        uint256[] memory, \n        bytes32[] memory, \n        bytes32[] memory, \n        bytes32[] memory, \n        uint256[] memory, \n        bytes32[] memory, \n        bytes32[] memory\n    ) {\n        bytes32[] memory sellerCodes = sellersWithManufacturer[_manufacturerCode];\n        uint256 k=0;\n        uint256[] memory ids = new uint256[](sellerCount);\n        bytes32[] memory snames = new bytes32[](sellerCount);\n        bytes32[] memory sbrands = new bytes32[](sellerCount);\n        bytes32[] memory scodes = new bytes32[](sellerCount);\n        uint256[] memory snums = new uint256[](sellerCount);\n        bytes32[] memory smanagers = new bytes32[](sellerCount);\n        bytes32[] memory saddress = new bytes32[](sellerCount);\n        \n        for(uint i=0; i<sellerCount; i++){\n            for(uint j=0; j<sellerCodes.length; j++){\n                if(sellers[i].sellerCode==sellerCodes[j]){\n                    ids[k] = sellers[i].sellerId;\n                    snames[k] = sellers[i].sellerName;\n                    sbrands[k] = sellers[i].sellerBrand;\n                    scodes[k] = sellers[i].sellerCode;\n                    snums[k] = sellers[i].sellerNum;\n                    smanagers[k] = sellers[i].sellerManager;\n                    saddress[k] = sellers[i].sellerAddress;\n                    k++;\n                    break;\n               }\n            }\n        }\n\n        return(ids, snames, sbrands, scodes, snums, smanagers, saddress);\n    }\n\n    function getPurchaseHistory(bytes32 _consumerCode) public view returns (\n        bytes32[] memory, \n        bytes32[] memory, \n        bytes32[] memory\n    ) {\n        bytes32[] memory productSNs = productsWithConsumer[_consumerCode];\n        bytes32[] memory sellerCodes = new bytes32[](productSNs.length);\n        bytes32[] memory manufacturerCodes = new bytes32[](productSNs.length);\n        for(uint i=0; i<productSNs.length; i++){\n            sellerCodes[i] = productsForSale[productSNs[i]];\n            manufacturerCodes[i] = productsManufactured[productSNs[i]];\n        }\n        return (productSNs, sellerCodes, manufacturerCodes);\n    }\n\n    //Verify\n    function verifyProduct(bytes32 _productSN, bytes32 _consumerCode) public view validProduct(_productSN) returns(bool) {\n        return productsSold[_productSN] == _consumerCode;\n    }\n    \n    /**\n     * Get detailed information about a product\n     */\n    function getProductDetails(bytes32 _productSN) public view returns (ProductDetails memory) {\n        uint256 index = productMap[_productSN];\n        productItem memory item = productItems[index];\n        \n        return ProductDetails({\n            productName: item.productName,\n            productBrand: item.productBrand,\n            productPrice: item.productPrice,\n            productStatus: item.productStatus,\n            manufacturer: productsManufactured[_productSN],\n            seller: productsForSale[_productSN],\n            consumer: productsSold[_productSN],\n            timestamp: item.timestamp\n        });\n    }\n}",
  "sourcePath": "C:\\Users\\suves\\OneDrive\\Desktop\\BlockVerify\\contracts\\product.sol",
  "compiler": {
    "name": "solc",
    "version": "0.8.12+commit.f00d7308.Emscripten.clang"
  },
  "schemaVersion": "3.4.16",
  "updatedAt": "2025-04-11T04:04:13.763Z",
  "devdoc": {
    "kind": "dev",
    "methods": {},
    "title": "BlockVerify - A product verification and anti-counterfeit system",
    "version": 1
  },
  "userdoc": {
    "kind": "user",
    "methods": {
      "getProductDetails(bytes32)": {
        "notice": "Get detailed information about a product"
      }
    },
    "notice": "This contract manages the lifecycle of products from manufacturer to consumer",
    "version": 1
  }
}